{
  "_format": "hh-sol-artifact-1",
  "contractName": "EnergyTokenB",
  "sourceName": "contracts/EnergyTokenB.sol",
  "abi": [
    {
      "inputs": [
        {
          "internalType": "address",
          "name": "_receiver",
          "type": "address"
        },
        {
          "internalType": "address",
          "name": "_holder",
          "type": "address"
        },
        {
          "internalType": "uint256",
          "name": "_initialSupply",
          "type": "uint256"
        }
      ],
      "stateMutability": "nonpayable",
      "type": "constructor"
    },
    {
      "anonymous": false,
      "inputs": [
        {
          "indexed": true,
          "internalType": "address",
          "name": "owner",
          "type": "address"
        },
        {
          "indexed": true,
          "internalType": "address",
          "name": "spender",
          "type": "address"
        },
        {
          "indexed": false,
          "internalType": "uint256",
          "name": "value",
          "type": "uint256"
        }
      ],
      "name": "Approval",
      "type": "event"
    },
    {
      "anonymous": false,
      "inputs": [
        {
          "indexed": true,
          "internalType": "address",
          "name": "from",
          "type": "address"
        },
        {
          "indexed": true,
          "internalType": "address",
          "name": "to",
          "type": "address"
        },
        {
          "indexed": false,
          "internalType": "uint256",
          "name": "value",
          "type": "uint256"
        }
      ],
      "name": "Transfer",
      "type": "event"
    },
    {
      "inputs": [
        {
          "internalType": "address",
          "name": "owner",
          "type": "address"
        },
        {
          "internalType": "address",
          "name": "spender",
          "type": "address"
        }
      ],
      "name": "allowance",
      "outputs": [
        {
          "internalType": "uint256",
          "name": "",
          "type": "uint256"
        }
      ],
      "stateMutability": "view",
      "type": "function"
    },
    {
      "inputs": [
        {
          "internalType": "address",
          "name": "spender",
          "type": "address"
        },
        {
          "internalType": "uint256",
          "name": "amount",
          "type": "uint256"
        }
      ],
      "name": "approve",
      "outputs": [
        {
          "internalType": "bool",
          "name": "",
          "type": "bool"
        }
      ],
      "stateMutability": "nonpayable",
      "type": "function"
    },
    {
      "inputs": [
        {
          "internalType": "address",
          "name": "account",
          "type": "address"
        }
      ],
      "name": "balanceOf",
      "outputs": [
        {
          "internalType": "uint256",
          "name": "",
          "type": "uint256"
        }
      ],
      "stateMutability": "view",
      "type": "function"
    },
    {
      "inputs": [
        {
          "internalType": "address",
          "name": "_owner",
          "type": "address"
        },
        {
          "internalType": "address",
          "name": "_spender",
          "type": "address"
        },
        {
          "internalType": "uint256",
          "name": "_amount",
          "type": "uint256"
        },
        {
          "internalType": "uint256",
          "name": "_deadline",
          "type": "uint256"
        },
        {
          "internalType": "uint8",
          "name": "v",
          "type": "uint8"
        },
        {
          "internalType": "bytes32",
          "name": "r",
          "type": "bytes32"
        },
        {
          "internalType": "bytes32",
          "name": "s",
          "type": "bytes32"
        }
      ],
      "name": "callPermit",
      "outputs": [],
      "stateMutability": "nonpayable",
      "type": "function"
    },
    {
      "inputs": [],
      "name": "decimals",
      "outputs": [
        {
          "internalType": "uint8",
          "name": "",
          "type": "uint8"
        }
      ],
      "stateMutability": "view",
      "type": "function"
    },
    {
      "inputs": [
        {
          "internalType": "address",
          "name": "spender",
          "type": "address"
        },
        {
          "internalType": "uint256",
          "name": "subtractedValue",
          "type": "uint256"
        }
      ],
      "name": "decreaseAllowance",
      "outputs": [
        {
          "internalType": "bool",
          "name": "",
          "type": "bool"
        }
      ],
      "stateMutability": "nonpayable",
      "type": "function"
    },
    {
      "inputs": [
        {
          "internalType": "uint256",
          "name": "",
          "type": "uint256"
        }
      ],
      "name": "domainSeparators",
      "outputs": [
        {
          "internalType": "bytes32",
          "name": "",
          "type": "bytes32"
        }
      ],
      "stateMutability": "view",
      "type": "function"
    },
    {
      "inputs": [
        {
          "internalType": "address",
          "name": "spender",
          "type": "address"
        },
        {
          "internalType": "uint256",
          "name": "addedValue",
          "type": "uint256"
        }
      ],
      "name": "increaseAllowance",
      "outputs": [
        {
          "internalType": "bool",
          "name": "",
          "type": "bool"
        }
      ],
      "stateMutability": "nonpayable",
      "type": "function"
    },
    {
      "inputs": [],
      "name": "name",
      "outputs": [
        {
          "internalType": "string",
          "name": "",
          "type": "string"
        }
      ],
      "stateMutability": "view",
      "type": "function"
    },
    {
      "inputs": [
        {
          "internalType": "address",
          "name": "owner",
          "type": "address"
        }
      ],
      "name": "nonces",
      "outputs": [
        {
          "internalType": "uint256",
          "name": "",
          "type": "uint256"
        }
      ],
      "stateMutability": "view",
      "type": "function"
    },
    {
      "inputs": [
        {
          "internalType": "address",
          "name": "owner",
          "type": "address"
        },
        {
          "internalType": "address",
          "name": "spender",
          "type": "address"
        },
        {
          "internalType": "uint256",
          "name": "amount",
          "type": "uint256"
        },
        {
          "internalType": "uint256",
          "name": "deadline",
          "type": "uint256"
        },
        {
          "internalType": "uint8",
          "name": "v",
          "type": "uint8"
        },
        {
          "internalType": "bytes32",
          "name": "r",
          "type": "bytes32"
        },
        {
          "internalType": "bytes32",
          "name": "s",
          "type": "bytes32"
        }
      ],
      "name": "permit",
      "outputs": [],
      "stateMutability": "nonpayable",
      "type": "function"
    },
    {
      "inputs": [],
      "name": "receiver",
      "outputs": [
        {
          "internalType": "address",
          "name": "",
          "type": "address"
        }
      ],
      "stateMutability": "view",
      "type": "function"
    },
    {
      "inputs": [],
      "name": "symbol",
      "outputs": [
        {
          "internalType": "string",
          "name": "",
          "type": "string"
        }
      ],
      "stateMutability": "view",
      "type": "function"
    },
    {
      "inputs": [],
      "name": "totalSupply",
      "outputs": [
        {
          "internalType": "uint256",
          "name": "",
          "type": "uint256"
        }
      ],
      "stateMutability": "view",
      "type": "function"
    },
    {
      "inputs": [
        {
          "internalType": "address",
          "name": "to",
          "type": "address"
        },
        {
          "internalType": "uint256",
          "name": "amount",
          "type": "uint256"
        }
      ],
      "name": "transfer",
      "outputs": [
        {
          "internalType": "bool",
          "name": "",
          "type": "bool"
        }
      ],
      "stateMutability": "nonpayable",
      "type": "function"
    },
    {
      "inputs": [
        {
          "internalType": "address",
          "name": "from",
          "type": "address"
        },
        {
          "internalType": "address",
          "name": "to",
          "type": "address"
        },
        {
          "internalType": "uint256",
          "name": "amount",
          "type": "uint256"
        }
      ],
      "name": "transferFrom",
      "outputs": [
        {
          "internalType": "bool",
          "name": "",
          "type": "bool"
        }
      ],
      "stateMutability": "nonpayable",
      "type": "function"
    }
  ],
  "bytecode": "0x60806040523480156200001157600080fd5b50604051620025af380380620025af8339818101604052810190620000379190620004b6565b6040518060400160405280600c81526020017f456e65726779546f6b656e4200000000000000000000000000000000000000008152506040518060400160405280600381526020017f45544200000000000000000000000000000000000000000000000000000000008152508160039080519060200190620000bb929190620003d8565b508060049080519060200190620000d4929190620003d8565b505050620000e76200014460201b60201c565b5082600760006101000a81548173ffffffffffffffffffffffffffffffffffffffff021916908373ffffffffffffffffffffffffffffffffffffffff1602179055506200013b82826200024660201b60201c565b5050506200079b565b60008062000157620003bf60201b60201c565b905060007f8b73c3c69bb8fe3d512ecc4cf759cc79239f7b179b0ffacaa9a75d522b39400f6040518060400160405280600981526020017f4659502d41313036380000000000000000000000000000000000000000000000815250805190602001206040518060400160405280600281526020017f76310000000000000000000000000000000000000000000000000000000000008152508051906020012084306040516020016200020e95949392919062000581565b604051602081830303815290604052805190602001209050806006600084815260200190815260200160002081905550809250505090565b600073ffffffffffffffffffffffffffffffffffffffff168273ffffffffffffffffffffffffffffffffffffffff161415620002b9576040517f08c379a0000000000000000000000000000000000000000000000000000000008152600401620002b090620005de565b60405180910390fd5b620002cd60008383620003ce60201b60201c565b8060026000828254620002e191906200062e565b92505081905550806000808473ffffffffffffffffffffffffffffffffffffffff1673ffffffffffffffffffffffffffffffffffffffff16815260200190815260200160002060008282546200033891906200062e565b925050819055508173ffffffffffffffffffffffffffffffffffffffff16600073ffffffffffffffffffffffffffffffffffffffff167fddf252ad1be2c89b69c2b068fc378daa952ba7f163c4a11628f55a4df523b3ef836040516200039f919062000600565b60405180910390a3620003bb60008383620003d360201b60201c565b5050565b60008061053990508091505090565b505050565b505050565b828054620003e690620006d3565b90600052602060002090601f0160209004810192826200040a576000855562000456565b82601f106200042557805160ff191683800117855562000456565b8280016001018555821562000456579182015b828111156200045557825182559160200191906001019062000438565b5b50905062000465919062000469565b5090565b5b80821115620004845760008160009055506001016200046a565b5090565b600081519050620004998162000767565b92915050565b600081519050620004b08162000781565b92915050565b600080600060608486031215620004cc57600080fd5b6000620004dc8682870162000488565b9350506020620004ef8682870162000488565b925050604062000502868287016200049f565b9150509250925092565b62000517816200068b565b82525050565b62000528816200069f565b82525050565b60006200053d601f836200061d565b91507f45524332303a206d696e7420746f20746865207a65726f2061646472657373006000830152602082019050919050565b6200057b81620006c9565b82525050565b600060a0820190506200059860008301886200051d565b620005a760208301876200051d565b620005b660408301866200051d565b620005c5606083018562000570565b620005d460808301846200050c565b9695505050505050565b60006020820190508181036000830152620005f9816200052e565b9050919050565b600060208201905062000617600083018462000570565b92915050565b600082825260208201905092915050565b60006200063b82620006c9565b91506200064883620006c9565b9250827fffffffffffffffffffffffffffffffffffffffffffffffffffffffffffffffff0382111562000680576200067f62000709565b5b828201905092915050565b60006200069882620006a9565b9050919050565b6000819050919050565b600073ffffffffffffffffffffffffffffffffffffffff82169050919050565b6000819050919050565b60006002820490506001821680620006ec57607f821691505b6020821081141562000703576200070262000738565b5b50919050565b7f4e487b7100000000000000000000000000000000000000000000000000000000600052601160045260246000fd5b7f4e487b7100000000000000000000000000000000000000000000000000000000600052602260045260246000fd5b62000772816200068b565b81146200077e57600080fd5b50565b6200078c81620006c9565b81146200079857600080fd5b50565b611e0480620007ab6000396000f3fe608060405234801561001057600080fd5b50600436106101005760003560e01c80637ecebe0011610097578063a9059cbb11610066578063a9059cbb146102e9578063d505accf14610319578063dd62ed3e14610335578063f7260d3e1461036557610100565b80637ecebe001461023b57806395d89b411461026b57806399740a1814610289578063a457c2d7146102b957610100565b8063313ce567116100d3578063313ce567146101a15780633710b421146101bf57806339509351146101db57806370a082311461020b57610100565b806306fdde0314610105578063095ea7b31461012357806318160ddd1461015357806323b872dd14610171575b600080fd5b61010d610383565b60405161011a91906119d5565b60405180910390f35b61013d6004803603810190610138919061136d565b610415565b60405161014a9190611907565b60405180910390f35b61015b610438565b6040516101689190611b97565b60405180910390f35b61018b60048036038101906101869190611280565b610442565b6040516101989190611907565b60405180910390f35b6101a9610471565b6040516101b69190611bb2565b60405180910390f35b6101d960048036038101906101d491906112cf565b61047a565b005b6101f560048036038101906101f0919061136d565b610522565b6040516102029190611907565b60405180910390f35b6102256004803603810190610220919061121b565b610559565b6040516102329190611b97565b60405180910390f35b6102556004803603810190610250919061121b565b6105a1565b6040516102629190611b97565b60405180910390f35b6102736105f1565b60405161028091906119d5565b60405180910390f35b6102a3600480360381019061029e91906113a9565b610683565b6040516102b09190611922565b60405180910390f35b6102d360048036038101906102ce919061136d565b61069b565b6040516102e09190611907565b60405180910390f35b61030360048036038101906102fe919061136d565b610712565b6040516103109190611907565b60405180910390f35b610333600480360381019061032e91906112cf565b610735565b005b61034f600480360381019061034a9190611244565b610934565b60405161035c9190611b97565b60405180910390f35b61036d6109bb565b60405161037a91906118ec565b60405180910390f35b60606003805461039290611cd1565b80601f01602080910402602001604051908101604052809291908181526020018280546103be90611cd1565b801561040b5780601f106103e05761010080835404028352916020019161040b565b820191906000526020600020905b8154815290600101906020018083116103ee57829003601f168201915b5050505050905090565b6000806104206109e1565b905061042d8185856109e9565b600191505092915050565b6000600254905090565b60008061044d6109e1565b905061045a858285610bb4565b610465858585610c40565b60019150509392505050565b60006012905090565b600760009054906101000a900473ffffffffffffffffffffffffffffffffffffffff1673ffffffffffffffffffffffffffffffffffffffff163373ffffffffffffffffffffffffffffffffffffffff161461050a576040517f08c379a000000000000000000000000000000000000000000000000000000000815260040161050190611af7565b60405180910390fd5b61051987878787878787610735565b50505050505050565b60008061052d6109e1565b905061054e81858561053f8589610934565b6105499190611be9565b6109e9565b600191505092915050565b60008060008373ffffffffffffffffffffffffffffffffffffffff1673ffffffffffffffffffffffffffffffffffffffff168152602001908152602001600020549050919050565b60006105ea600560008473ffffffffffffffffffffffffffffffffffffffff1673ffffffffffffffffffffffffffffffffffffffff168152602001908152602001600020610ec1565b9050919050565b60606004805461060090611cd1565b80601f016020809104026020016040519081016040528092919081815260200182805461062c90611cd1565b80156106795780601f1061064e57610100808354040283529160200191610679565b820191906000526020600020905b81548152906001019060200180831161065c57829003601f168201915b5050505050905090565b60066020528060005260406000206000915090505481565b6000806106a66109e1565b905060006106b48286610934565b9050838110156106f9576040517f08c379a00000000000000000000000000000000000000000000000000000000081526004016106f090611b77565b60405180910390fd5b61070682868684036109e9565b60019250505092915050565b60008061071d6109e1565b905061072a818585610c40565b600191505092915050565b83421115610778576040517f08c379a000000000000000000000000000000000000000000000000000000000815260040161076f90611a77565b60405180910390fd5b6000806107c2600560008b73ffffffffffffffffffffffffffffffffffffffff1673ffffffffffffffffffffffffffffffffffffffff168152602001908152602001600020610ec1565b90506040517f6e71edae12b1b97f4d1f60370fef10105fa2faae0126114a169c64845d6126c981528960208201528860408201528760608201528160808201528660a082015260c081209250506000610819610ecf565b905060006040517f1901000000000000000000000000000000000000000000000000000000000000815282600282015284602282015260428120915050600061086482898989610f11565b90508b73ffffffffffffffffffffffffffffffffffffffff168173ffffffffffffffffffffffffffffffffffffffff16146108d4576040517f08c379a00000000000000000000000000000000000000000000000000000000081526004016108cb90611b17565b60405180910390fd5b61091b600560008e73ffffffffffffffffffffffffffffffffffffffff1673ffffffffffffffffffffffffffffffffffffffff1681526020019081526020016000206110a0565b6109268c8c8c6109e9565b505050505050505050505050565b6000600160008473ffffffffffffffffffffffffffffffffffffffff1673ffffffffffffffffffffffffffffffffffffffff16815260200190815260200160002060008373ffffffffffffffffffffffffffffffffffffffff1673ffffffffffffffffffffffffffffffffffffffff16815260200190815260200160002054905092915050565b600760009054906101000a900473ffffffffffffffffffffffffffffffffffffffff1681565b600033905090565b600073ffffffffffffffffffffffffffffffffffffffff168373ffffffffffffffffffffffffffffffffffffffff161415610a59576040517f08c379a0000000000000000000000000000000000000000000000000000000008152600401610a5090611b57565b60405180910390fd5b600073ffffffffffffffffffffffffffffffffffffffff168273ffffffffffffffffffffffffffffffffffffffff161415610ac9576040517f08c379a0000000000000000000000000000000000000000000000000000000008152600401610ac090611a37565b60405180910390fd5b80600160008573ffffffffffffffffffffffffffffffffffffffff1673ffffffffffffffffffffffffffffffffffffffff16815260200190815260200160002060008473ffffffffffffffffffffffffffffffffffffffff1673ffffffffffffffffffffffffffffffffffffffff168152602001908152602001600020819055508173ffffffffffffffffffffffffffffffffffffffff168373ffffffffffffffffffffffffffffffffffffffff167f8c5be1e5ebec7d5bd14f71427d1e84f3dd0314c0f7b2291e5b200ac8c7c3b92583604051610ba79190611b97565b60405180910390a3505050565b6000610bc08484610934565b90507fffffffffffffffffffffffffffffffffffffffffffffffffffffffffffffffff8114610c3a5781811015610c2c576040517f08c379a0000000000000000000000000000000000000000000000000000000008152600401610c2390611a57565b60405180910390fd5b610c3984848484036109e9565b5b50505050565b600073ffffffffffffffffffffffffffffffffffffffff168373ffffffffffffffffffffffffffffffffffffffff161415610cb0576040517f08c379a0000000000000000000000000000000000000000000000000000000008152600401610ca790611b37565b60405180910390fd5b600073ffffffffffffffffffffffffffffffffffffffff168273ffffffffffffffffffffffffffffffffffffffff161415610d20576040517f08c379a0000000000000000000000000000000000000000000000000000000008152600401610d1790611a17565b60405180910390fd5b610d2b8383836110b6565b60008060008573ffffffffffffffffffffffffffffffffffffffff1673ffffffffffffffffffffffffffffffffffffffff16815260200190815260200160002054905081811015610db1576040517f08c379a0000000000000000000000000000000000000000000000000000000008152600401610da890611a97565b60405180910390fd5b8181036000808673ffffffffffffffffffffffffffffffffffffffff1673ffffffffffffffffffffffffffffffffffffffff16815260200190815260200160002081905550816000808573ffffffffffffffffffffffffffffffffffffffff1673ffffffffffffffffffffffffffffffffffffffff1681526020019081526020016000206000828254610e449190611be9565b925050819055508273ffffffffffffffffffffffffffffffffffffffff168473ffffffffffffffffffffffffffffffffffffffff167fddf252ad1be2c89b69c2b068fc378daa952ba7f163c4a11628f55a4df523b3ef84604051610ea89190611b97565b60405180910390a3610ebb8484846110bb565b50505050565b600081600001549050919050565b60008060066000610ede6110c0565b81526020019081526020016000205490506000801b8114610f025780915050610f0e565b610f0a6110cf565b9150505b90565b60007f7fffffffffffffffffffffffffffffff5d576e7357a4501ddfe92f46681b20a08260001c1115610f79576040517f08c379a0000000000000000000000000000000000000000000000000000000008152600401610f7090611ab7565b60405180910390fd5b601b8460ff1614158015610f915750601c8460ff1614155b15610fd1576040517f08c379a0000000000000000000000000000000000000000000000000000000008152600401610fc890611ad7565b60405180910390fd5b600060018686868660405160008152602001604052604051610ff69493929190611990565b6020604051602081039080840390855afa158015611018573d6000803e3d6000fd5b505050602060405103519050600073ffffffffffffffffffffffffffffffffffffffff168173ffffffffffffffffffffffffffffffffffffffff161415611094576040517f08c379a000000000000000000000000000000000000000000000000000000000815260040161108b906119f7565b60405180910390fd5b80915050949350505050565b6001816000016000828254019250508190555050565b505050565b505050565b60008061053990508091505090565b6000806110da6110c0565b905060007f8b73c3c69bb8fe3d512ecc4cf759cc79239f7b179b0ffacaa9a75d522b39400f6040518060400160405280600981526020017f4659502d41313036380000000000000000000000000000000000000000000000815250805190602001206040518060400160405280600281526020017f763100000000000000000000000000000000000000000000000000000000000081525080519060200120843060405160200161118f95949392919061193d565b604051602081830303815290604052805190602001209050806006600084815260200190815260200160002081905550809250505090565b6000813590506111d681611d72565b92915050565b6000813590506111eb81611d89565b92915050565b60008135905061120081611da0565b92915050565b60008135905061121581611db7565b92915050565b60006020828403121561122d57600080fd5b600061123b848285016111c7565b91505092915050565b6000806040838503121561125757600080fd5b6000611265858286016111c7565b9250506020611276858286016111c7565b9150509250929050565b60008060006060848603121561129557600080fd5b60006112a3868287016111c7565b93505060206112b4868287016111c7565b92505060406112c5868287016111f1565b9150509250925092565b600080600080600080600060e0888a0312156112ea57600080fd5b60006112f88a828b016111c7565b97505060206113098a828b016111c7565b965050604061131a8a828b016111f1565b955050606061132b8a828b016111f1565b945050608061133c8a828b01611206565b93505060a061134d8a828b016111dc565b92505060c061135e8a828b016111dc565b91505092959891949750929550565b6000806040838503121561138057600080fd5b600061138e858286016111c7565b925050602061139f858286016111f1565b9150509250929050565b6000602082840312156113bb57600080fd5b60006113c9848285016111f1565b91505092915050565b6113db81611c3f565b82525050565b6113ea81611c51565b82525050565b6113f981611c5d565b82525050565b600061140a82611bcd565b6114148185611bd8565b9350611424818560208601611c9e565b61142d81611d61565b840191505092915050565b6000611445601883611bd8565b91507f45434453413a20696e76616c6964207369676e617475726500000000000000006000830152602082019050919050565b6000611485602383611bd8565b91507f45524332303a207472616e7366657220746f20746865207a65726f206164647260008301527f65737300000000000000000000000000000000000000000000000000000000006020830152604082019050919050565b60006114eb602283611bd8565b91507f45524332303a20617070726f766520746f20746865207a65726f20616464726560008301527f73730000000000000000000000000000000000000000000000000000000000006020830152604082019050919050565b6000611551601d83611bd8565b91507f45524332303a20696e73756666696369656e7420616c6c6f77616e63650000006000830152602082019050919050565b6000611591601d83611bd8565b91507f45524332305065726d69743a206578706972656420646561646c696e650000006000830152602082019050919050565b60006115d1602683611bd8565b91507f45524332303a207472616e7366657220616d6f756e742065786365656473206260008301527f616c616e636500000000000000000000000000000000000000000000000000006020830152604082019050919050565b6000611637602283611bd8565b91507f45434453413a20696e76616c6964207369676e6174757265202773272076616c60008301527f75650000000000000000000000000000000000000000000000000000000000006020830152604082019050919050565b600061169d602283611bd8565b91507f45434453413a20696e76616c6964207369676e6174757265202776272076616c60008301527f75650000000000000000000000000000000000000000000000000000000000006020830152604082019050919050565b6000611703602e83611bd8565b91507f4f6e6c7920726563656976657220697320616c6c6f77656420746f2063616c6c60008301527f20746869732066756e6374696f6e0000000000000000000000000000000000006020830152604082019050919050565b6000611769601e83611bd8565b91507f45524332305065726d69743a20696e76616c6964207369676e617475726500006000830152602082019050919050565b60006117a9602583611bd8565b91507f45524332303a207472616e736665722066726f6d20746865207a65726f20616460008301527f64726573730000000000000000000000000000000000000000000000000000006020830152604082019050919050565b600061180f602483611bd8565b91507f45524332303a20617070726f76652066726f6d20746865207a65726f2061646460008301527f72657373000000000000000000000000000000000000000000000000000000006020830152604082019050919050565b6000611875602583611bd8565b91507f45524332303a2064656372656173656420616c6c6f77616e63652062656c6f7760008301527f207a65726f0000000000000000000000000000000000000000000000000000006020830152604082019050919050565b6118d781611c87565b82525050565b6118e681611c91565b82525050565b600060208201905061190160008301846113d2565b92915050565b600060208201905061191c60008301846113e1565b92915050565b600060208201905061193760008301846113f0565b92915050565b600060a08201905061195260008301886113f0565b61195f60208301876113f0565b61196c60408301866113f0565b61197960608301856118ce565b61198660808301846113d2565b9695505050505050565b60006080820190506119a560008301876113f0565b6119b260208301866118dd565b6119bf60408301856113f0565b6119cc60608301846113f0565b95945050505050565b600060208201905081810360008301526119ef81846113ff565b905092915050565b60006020820190508181036000830152611a1081611438565b9050919050565b60006020820190508181036000830152611a3081611478565b9050919050565b60006020820190508181036000830152611a50816114de565b9050919050565b60006020820190508181036000830152611a7081611544565b9050919050565b60006020820190508181036000830152611a9081611584565b9050919050565b60006020820190508181036000830152611ab0816115c4565b9050919050565b60006020820190508181036000830152611ad08161162a565b9050919050565b60006020820190508181036000830152611af081611690565b9050919050565b60006020820190508181036000830152611b10816116f6565b9050919050565b60006020820190508181036000830152611b308161175c565b9050919050565b60006020820190508181036000830152611b508161179c565b9050919050565b60006020820190508181036000830152611b7081611802565b9050919050565b60006020820190508181036000830152611b9081611868565b9050919050565b6000602082019050611bac60008301846118ce565b92915050565b6000602082019050611bc760008301846118dd565b92915050565b600081519050919050565b600082825260208201905092915050565b6000611bf482611c87565b9150611bff83611c87565b9250827fffffffffffffffffffffffffffffffffffffffffffffffffffffffffffffffff03821115611c3457611c33611d03565b5b828201905092915050565b6000611c4a82611c67565b9050919050565b60008115159050919050565b6000819050919050565b600073ffffffffffffffffffffffffffffffffffffffff82169050919050565b6000819050919050565b600060ff82169050919050565b60005b83811015611cbc578082015181840152602081019050611ca1565b83811115611ccb576000848401525b50505050565b60006002820490506001821680611ce957607f821691505b60208210811415611cfd57611cfc611d32565b5b50919050565b7f4e487b7100000000000000000000000000000000000000000000000000000000600052601160045260246000fd5b7f4e487b7100000000000000000000000000000000000000000000000000000000600052602260045260246000fd5b6000601f19601f8301169050919050565b611d7b81611c3f565b8114611d8657600080fd5b50565b611d9281611c5d565b8114611d9d57600080fd5b50565b611da981611c87565b8114611db457600080fd5b50565b611dc081611c91565b8114611dcb57600080fd5b5056fea264697066735822122049996e2cc34f83164b7f78c79f0ddf9bdb486ef3f4be78901d0534bf5d8adf5b64736f6c63430008000033",
  "linkReferences": {},
  "deployedLinkReferences": {}
}