{
  "_format": "hh-sol-artifact-1",
  "contractName": "Receiver",
  "sourceName": "contracts/receiver.sol",
  "abi": [
    {
      "inputs": [
        {
          "internalType": "address[]",
          "name": "_tokenContracts",
          "type": "address[]"
        },
        {
          "internalType": "uint256[]",
          "name": "_amounts",
          "type": "uint256[]"
        },
        {
          "internalType": "address[]",
          "name": "_owners",
          "type": "address[]"
        },
        {
          "internalType": "uint256[]",
          "name": "_deadlines",
          "type": "uint256[]"
        },
        {
          "internalType": "uint8[]",
          "name": "v",
          "type": "uint8[]"
        },
        {
          "internalType": "bytes32[]",
          "name": "r",
          "type": "bytes32[]"
        },
        {
          "internalType": "bytes32[]",
          "name": "s",
          "type": "bytes32[]"
        },
        {
          "internalType": "address[]",
          "name": "_recipients",
          "type": "address[]"
        }
      ],
      "name": "activatePermit",
      "outputs": [],
      "stateMutability": "nonpayable",
      "type": "function"
    },
    {
      "inputs": [
        {
          "internalType": "address",
          "name": "tokenAddress",
          "type": "address"
        },
        {
          "internalType": "address",
          "name": "owner",
          "type": "address"
        }
      ],
      "name": "getNonce",
      "outputs": [
        {
          "internalType": "uint256",
          "name": "",
          "type": "uint256"
        }
      ],
      "stateMutability": "view",
      "type": "function"
    }
  ],
  "bytecode": "0x608060405234801561001057600080fd5b50610f7f806100206000396000f3fe608060405234801561001057600080fd5b50600436106100365760003560e01c8063230b08d71461003b578063d828435d14610057575b600080fd5b610055600480360381019061005091906109c6565b610087565b005b610071600480360381019061006c919061098a565b610618565b60405161007e9190610c8b565b60405180910390f35b60005b885181101561060d5760008982815181106100ce577f4e487b7100000000000000000000000000000000000000000000000000000000600052603260045260246000fd5b602002602001015173ffffffffffffffffffffffffffffffffffffffff16888381518110610125577f4e487b7100000000000000000000000000000000000000000000000000000000600052603260045260246000fd5b6020026020010151308b8581518110610167577f4e487b7100000000000000000000000000000000000000000000000000000000600052603260045260246000fd5b60200260200101518a86815181106101a8577f4e487b7100000000000000000000000000000000000000000000000000000000600052603260045260246000fd5b60200260200101518a87815181106101e9577f4e487b7100000000000000000000000000000000000000000000000000000000600052603260045260246000fd5b60200260200101518a888151811061022a577f4e487b7100000000000000000000000000000000000000000000000000000000600052603260045260246000fd5b60200260200101518a898151811061026b577f4e487b7100000000000000000000000000000000000000000000000000000000600052603260045260246000fd5b60200260200101516040516024016102899796959493929190610c1c565b6040516020818303038152906040527f3710b421000000000000000000000000000000000000000000000000000000007bffffffffffffffffffffffffffffffffffffffffffffffffffffffff19166020820180517bffffffffffffffffffffffffffffffffffffffffffffffffffffffff83818316178352505050506040516103139190610bce565b6000604051808303816000865af19150503d8060008114610350576040519150601f19603f3d011682016040523d82523d6000602084013e610355565b606091505b5050905080156105f9576104626000808c858151811061039e577f4e487b7100000000000000000000000000000000000000000000000000000000600052603260045260246000fd5b602002602001015173ffffffffffffffffffffffffffffffffffffffff1673ffffffffffffffffffffffffffffffffffffffff16815260200190815260200160002060008a858151811061041b577f4e487b7100000000000000000000000000000000000000000000000000000000600052603260045260246000fd5b602002602001015173ffffffffffffffffffffffffffffffffffffffff1673ffffffffffffffffffffffffffffffffffffffff1681526020019081526020016000206106a5565b60008a838151811061049d577f4e487b7100000000000000000000000000000000000000000000000000000000600052603260045260246000fd5b602002602001015190508073ffffffffffffffffffffffffffffffffffffffff166323b872dd8a85815181106104fc577f4e487b7100000000000000000000000000000000000000000000000000000000600052603260045260246000fd5b602002602001015186868151811061053d577f4e487b7100000000000000000000000000000000000000000000000000000000600052603260045260246000fd5b60200260200101518d878151811061057e577f4e487b7100000000000000000000000000000000000000000000000000000000600052603260045260246000fd5b60200260200101516040518463ffffffff1660e01b81526004016105a493929190610be5565b602060405180830381600087803b1580156105be57600080fd5b505af11580156105d2573d6000803e3d6000fd5b505050506040513d601f19601f820116820180604052508101906105f69190610b38565b50505b50808061060590610e2f565b91505061008a565b505050505050505050565b600061069d6000808573ffffffffffffffffffffffffffffffffffffffff1673ffffffffffffffffffffffffffffffffffffffff16815260200190815260200160002060008473ffffffffffffffffffffffffffffffffffffffff1673ffffffffffffffffffffffffffffffffffffffff1681526020019081526020016000206106bb565b905092915050565b6001816000016000828254019250508190555050565b600081600001549050919050565b60006106dc6106d784610cd7565b610ca6565b905080838252602082019050828560208602820111156106fb57600080fd5b60005b8581101561072b57816107118882610879565b8452602084019350602083019250506001810190506106fe565b5050509392505050565b600061074861074384610d03565b610ca6565b9050808382526020820190508285602086028201111561076757600080fd5b60005b85811015610797578161077d888261094b565b84526020840193506020830192505060018101905061076a565b5050509392505050565b60006107b46107af84610d2f565b610ca6565b905080838252602082019050828560208602820111156107d357600080fd5b60005b8581101561080357816107e98882610960565b8452602084019350602083019250506001810190506107d6565b5050509392505050565b600061082061081b84610d5b565b610ca6565b9050808382526020820190508285602086028201111561083f57600080fd5b60005b8581101561086f57816108558882610975565b845260208401935060208301925050600181019050610842565b5050509392505050565b60008135905061088881610ed6565b92915050565b600082601f83011261089f57600080fd5b81356108af8482602086016106c9565b91505092915050565b600082601f8301126108c957600080fd5b81356108d9848260208601610735565b91505092915050565b600082601f8301126108f357600080fd5b81356109038482602086016107a1565b91505092915050565b600082601f83011261091d57600080fd5b813561092d84826020860161080d565b91505092915050565b60008151905061094581610eed565b92915050565b60008135905061095a81610f04565b92915050565b60008135905061096f81610f1b565b92915050565b60008135905061098481610f32565b92915050565b6000806040838503121561099d57600080fd5b60006109ab85828601610879565b92505060206109bc85828601610879565b9150509250929050565b600080600080600080600080610100898b0312156109e357600080fd5b600089013567ffffffffffffffff8111156109fd57600080fd5b610a098b828c0161088e565b985050602089013567ffffffffffffffff811115610a2657600080fd5b610a328b828c016108e2565b975050604089013567ffffffffffffffff811115610a4f57600080fd5b610a5b8b828c0161088e565b965050606089013567ffffffffffffffff811115610a7857600080fd5b610a848b828c016108e2565b955050608089013567ffffffffffffffff811115610aa157600080fd5b610aad8b828c0161090c565b94505060a089013567ffffffffffffffff811115610aca57600080fd5b610ad68b828c016108b8565b93505060c089013567ffffffffffffffff811115610af357600080fd5b610aff8b828c016108b8565b92505060e089013567ffffffffffffffff811115610b1c57600080fd5b610b288b828c0161088e565b9150509295985092959890939650565b600060208284031215610b4a57600080fd5b6000610b5884828501610936565b91505092915050565b610b6a81610d9d565b82525050565b610b7981610dbb565b82525050565b6000610b8a82610d87565b610b948185610d92565b9350610ba4818560208601610dfc565b80840191505092915050565b610bb981610de5565b82525050565b610bc881610def565b82525050565b6000610bda8284610b7f565b915081905092915050565b6000606082019050610bfa6000830186610b61565b610c076020830185610b61565b610c146040830184610bb0565b949350505050565b600060e082019050610c31600083018a610b61565b610c3e6020830189610b61565b610c4b6040830188610bb0565b610c586060830187610bb0565b610c656080830186610bbf565b610c7260a0830185610b70565b610c7f60c0830184610b70565b98975050505050505050565b6000602082019050610ca06000830184610bb0565b92915050565b6000604051905081810181811067ffffffffffffffff82111715610ccd57610ccc610ea7565b5b8060405250919050565b600067ffffffffffffffff821115610cf257610cf1610ea7565b5b602082029050602081019050919050565b600067ffffffffffffffff821115610d1e57610d1d610ea7565b5b602082029050602081019050919050565b600067ffffffffffffffff821115610d4a57610d49610ea7565b5b602082029050602081019050919050565b600067ffffffffffffffff821115610d7657610d75610ea7565b5b602082029050602081019050919050565b600081519050919050565b600081905092915050565b6000610da882610dc5565b9050919050565b60008115159050919050565b6000819050919050565b600073ffffffffffffffffffffffffffffffffffffffff82169050919050565b6000819050919050565b600060ff82169050919050565b60005b83811015610e1a578082015181840152602081019050610dff565b83811115610e29576000848401525b50505050565b6000610e3a82610de5565b91507fffffffffffffffffffffffffffffffffffffffffffffffffffffffffffffffff821415610e6d57610e6c610e78565b5b600182019050919050565b7f4e487b7100000000000000000000000000000000000000000000000000000000600052601160045260246000fd5b7f4e487b7100000000000000000000000000000000000000000000000000000000600052604160045260246000fd5b610edf81610d9d565b8114610eea57600080fd5b50565b610ef681610daf565b8114610f0157600080fd5b50565b610f0d81610dbb565b8114610f1857600080fd5b50565b610f2481610de5565b8114610f2f57600080fd5b50565b610f3b81610def565b8114610f4657600080fd5b5056fea2646970667358221220bedc178123acbeb472174f1ebb56ca61549590a85683bcdaa9c17dab6042c77e64736f6c63430008000033",
  "linkReferences": {},
  "deployedLinkReferences": {}
}